:020000040000FA
:040000005EEF05F0BA
:1008000000436F6D756E756E692E203820426974D5
:1008100073004C4344205354415254494E472E2EAA
:100820002E0050494331384632353530204C434450
:100830000000036E8292016A03AE01D0012A0132E8
:100840000132815001187F0B0118816E03C001F045
:10085000060E026ED8900132022E2AEF04F0013A01
:100860000146014681500118BF0B0118816E03C07B
:1008700001F0050E026ED8900132022E3BEF04F01B
:10088000013A014681500118DF0B0118816E03C047
:1008900001F0013A0F0E0116013A81500118EF0BD9
:1008A0000118816E03C001F0D8900132D890013256
:1008B000D890013201460146014681500118F70BDC
:1008C0000118816E03C001F0D8900132D890013236
:1008D0000146014681500118FB0B0118816E03C0CF
:1008E00001F0D8900132014681500118FD0B01182A
:1008F000816E03B002D0819001D081808282500E3F
:10090000E82EFED782921200276E829020EE3FF0F2
:1009100010EE09F00E0EDBCFE3FFE806FCE220EE5E
:1009200030F010EE18F00E0EDBCFE3FFE806FCE22D
:100930000404D8A49EEF04F0A0EF04F0B4EF04F098
:10094000FF0E056EFF0E066E2750076E086A0550F3
:10095000072606500822090E0724D96E000E08202B
:10096000DA6EDF5019EC04F0020E0418D8A4BBEFC5
:1009700004F0BDEF04F0D1EF04F0FF0E056EFF0EA2
:10098000066E2750076E086A055007260650082293
:10099000180E0724D96E000E0820DA6EDF5019EC0D
:1009A00004F01200750E2C6EE10EE82EFED72C2EF0
:1009B000FCD700F0939E939C939A9398939693946C
:1009C0009392939094909492380E19EC04F0780ED0
:1009D000E82EFED74E5019EC04F0780EE82EFED724
:1009E000A6EC05F0010E286E120E296E080E2A6E76
:1009F000010E3CEC05F05C0E2D6E510E2C6E600E5F
:100A0000E82EFED72C2EFCD72D2EFAD700D0A6EC40
:100A100005F01200D2EC04F0010E286E220E296EB1
:100A2000080E2A6E020E3CEC05F0020E286E010E36
:100A3000296E080E2A6E010E3CEC05F03D0E2F6E5D
:100A4000E10E2E6E400EE82EFED72E2EFCD72F2E56
:100A5000FAD786EC05F03D0E2F6EE10E2E6E400E9D
:100A6000E82EFED72E2EFCD72F2EFAD776EC05F0E7
:100A700038EF05F000EF00F02B6E28C004F02B508B
:100A800084EC04F082804FEF05F029C0F6FF2AC005
:100A9000F7FF0800F55019EC04F0294A2A2A29C06A
:100AA000F6FF2AC0F7FF0800F5500009D8A45BEF55
:100AB00005F05DEF05F045EF05F012002C0EF66E27
:100AC0000B0EF76E000EF86E00EE30F010EE1FF019
:100AD0000900F5CFEEFFE550E150FAE14F6A000E54
:100AE000F86E080EF76E00010AEF05F082904E5086
:100AF00004094E6E4E5019EC04F0100E046E940E64
:100B0000E82EFED7042EFCD700D0120082904E5063
:100B1000FB0B4E6E4E5019EC04F0100E046E940E4A
:100B2000E82EFED7042EFCD700D01200C0C1C2C3ED
:100B3000C4C5C6C7C8C9CACBCCCDCF808182838487
:0B0B400085868788898A8B8C8D8F0E3C
:100B4C008290010E19EC04F0100E046E940EE82E37
:0A0B5C00FED7042EFCD700D01200D3
:020000040020DA
:08000000FFFFFFFFFFFFFFFF00
:020000040030CA
:0E000000344E0E1EFF8180FF0FC00FE00F4038
:00000001FF
